S00C00006D61696E2E7372656373
S31500000000FE1F00EAFF1F00EAFE1F00EAFD1F00EACE
S31500000010FC1F00EAFB1F00EA0B2000EAF91F00EABA
S3150000002000000000000000000000000000000000CA
S3150000003000000000000000000000000000000000BA
S3150000004000000000000000000000000000000000AA
S31500000050000000000000000000000000000000009A
S3150000800002D9A0E32B0200EBF40000EBFDFFFFEA30
S3150000801000000FE18000C0E300F021E11EFF2FE128
S3150000802000000FE1800080E300F021E11EFF2FE158
S31500008030001080E51EFF2FE1000090E51EFF2FE1F6
S31500008040010050E2FDFFFF1A1EFF2FE101D9A0E358
S3150000805004E08DE5EB0000EB04E09DE504F05EE254
S315000080600000A0E3160F07EE1A0F07EE1E0F07EE2D
S315000080709A0F07EEBA0F07EE0EF0A0E1150F07EE06
S31500008080D50F07EE9A0F07EE950F07EE0EF0A0E15B
S315000080900000A0E3160F07EE1A0F07EE1E0F07EEFD
S315000080A09A0F07EEBA0F07EE150F07EED50F07EE7C
S315000080B09A0F07EE950F07EE0EF0A0E141190000AA
S315000080C000616561626900010F000000053454001B
S315000080D0060208010901000010402DE91C409FE539
S315000080E00400A0E1D3FFFFEB0E16C0E3021681E306
S315000080F00400A0E1CDFFFFEB1040BDE81EFF2FE11D
S315000081001000202010402DE9000050E30219A0E3E2
S315000081100C009F150C009F05C4FFFFEB1040BDE847
S315000081201EFF2FE1200020202C00202000009FE5CC
S315000081301EFF2FE10093000070402DE90050A0E1E2
S315000081400140A0E1D1FFFFEB24609FE5CFFFFFEBED
S31500008150983896E5000053E3FBFFFFBA0F40C4E3EF
S31500008160CAFFFFEB050084E1A00886E57040BDE884
S315000081701EFF2FE100B0002070402DE90050A0E165
S315000081802C409FE5C1FFFFEB983894E5010113E30E
S31500008190FBFFFF1ABDFFFFEB800894E50F2000E20E
S315000081A0050052E1F6FFFF1A0F00C0E37040BDE87C
S315000081B01EFF2FE100B0002070402DE90050A0E125
S315000081C06540A0E3036180E2010000EA014054E259
S315000081D00800000A0610A0E10800A0E3D5FFFFEBA7
S315000081E00800A0E3E3FFFFEBA8FFFFEB040095E523
S315000081F0020150E3F4FFFF1A7040BDE81EFF2FE1B5
S3150000820050309FE570402DE903C0A0E12050A0E367
S315000082100820A0E300E0A0E10040A0E30051ACE5A7
S315000082200C00A0E130C09FE514E183E5181183E559
S31500008230044183E51C4183E50210A0E108C183E502
S315000082400C2183E5102183E5DAFFFFEB0400A0E1B2
S315000082507040BDE81EFF2FE1009300003080030050
S3150000826050309FE570402DE903C0A0E12050A0E307
S315000082700820A0E300E0A0E10040A0E30051ACE547
S315000082800C00A0E130C09FE514E183E5181183E5F9
S31500008290044183E51C4183E50210A0E108C183E5A2
S315000082A00C2183E5102183E5C2FFFFEB0400A0E16A
S315000082B07040BDE81EFF2FE1009300000180020020
S315000082C0F0412DE90070A0E10160A0E10250A0E1BB
S315000082D098409FE598009FE50410A0E1460200EB58
S315000082E00030A0E32000A0E3007084E5046084E58C
S315000082F0002094E5082084E5041094E5950102E049
S31500008300015184E20C2084E5103084E5140084E5F4
S31500008310183084E51C3084E5203084E5243084E57B
S31500008320283084E5010000EA010AA0E343FFFFEBE1
S315000083300510A0E10100A0E37EFFFFEB0100A0E332
S315000083408CFFFFEB203094E5000053E3F5FFFF0AB6
S31500008350202094E5203094E50131C3E3203084E504
S315000083600000A0E3282084E5F041BDE81EFF2FE1D0
S3150000837000930000548C00000020A0E110402DE97D
S3150000838050409FE52410A0E30400A0E10030A0E3E4
S3150000839008C0A0E304E094E59E0202E038E09FE511
S315000083A00011A0E50910A0E3182184E508E184E5A1
S315000083B0043184E5143184E51C3184E5203184E5FB
S315000083C00CC184E510C184E57AFFFFEB040194E556
S315000083D01040BDE81EFF2FE1009300000980040055
S315000083E010402DE93BFFFFEB790100EB10409FE5C4
S315000083F00400A0E1CA0100EB0108A0E30FFFFFEBB8
S31500008400FAFFFFEA648C000010402DE908009FE5A2
S31500008410C30100EB1040BDE81EFF2FE1748C000085
S3150000842020309FE5050093E9001093E5000081E008
S31500008430021081E0022080E0050083E9001083E558
S315000084402008A0E11EFF2FE1488C000070402DE9B6
S31500008450CC509FE5CC409FE50500A0E1B00100EBC4
S315000084600C1094E5C0009FE5E30100EB141094E5C1
S31500008470B8009FE5E00100EB181094E5B0009FE519
S31500008480DD0100EB1C1094E5A8009FE5DA0100EB86
S31500008490201094E5A0009FE5D70100EB2C1094E591
S315000084A098009FE5D40100EB381094E590009FE515
S315000084B0D10100EB401094E588009FE5CE0100EB6A
S315000084C0441094E580009FE5CB0100EB481094E54D
S315000084D078009FE5C80100EB4C1094E570009FE51D
S315000084E0C50100EB501094E568009FE5C20100EB62
S315000084F0541094E560009FE5BF0100EB581094E529
S3150000850058009FE5BC0100EB681094E550009FE51C
S31500008510B90100EB0500A0E1810100EB7040BDE868
S315000085201EFF2FE1888C000000808020B88C0000A0
S31500008530D08C0000E88C0000008D0000188D000033
S31500008540308D0000488D0000608D0000788D0000A1
S31500008550908D0000A88D0000C08D0000D88D000011
S31500008560F08D0000088E000070402DE91C529FE53A
S315000085701C429FE50500A0E1690100EB001094E5AF
S3150000858010029FE59C0100EB041094E508029FE5AC
S31500008590990100EB081094E500029FE5960100EBB7
S315000085A00C1094E5F8019FE5930100EB5C1094E54F
S315000085B0F0019FE5900100EB901094E5E8019FE53E
S315000085C08D0100EB941094E5E0019FE58A0100EB34
S315000085D0981094E5D8019FE5870100EB9C1094E57F
S315000085E0D0019FE5840100EBA01094E5C8019FE54A
S315000085F0810100EBA41094E5C0019FE57E0100EB2C
S31500008600A81094E5B8019FE57B0100EBAC1094E55A
S31500008610B0019FE5780100EBB01094E5A8019FE555
S31500008620750100EBC01094E5A0019FE5720100EB17
S31500008630C41094E598019FE56F0100EBC81094E51E
S3150000864090019FE56C0100EBCC1094E588019FE555
S31500008650690100EBD01094E580019FE5660100EB0F
S31500008660D41094E578019FE5630100EBD81094E5FA
S3150000867070019FE5600100EBE81094E568019FE555
S315000086805D0100EBEC1094E560019FE55A0100EBFB
S31500008690F01094E558019FE5570100EBF41094E5BE
S315000086A050019FE5540100EBF81094E548019FE561
S315000086B0510100EBFC1094E540019FE54E0100EBF3
S315000086C0001194E538019FE54B0100EB041194E598
S315000086D030019FE5480100EB081194E528019FE56C
S315000086E0450100EB0C1194E520019FE5420100EBEA
S315000086F0101194E518019FE53F0100EB141194E574
S3150000870010019FE53C0100EB181194E508019FE577
S31500008710390100EBC01294E500019FE5360100EB3C
S31500008720C41294E5F8009FE5330100EB401394E58D
S31500008730F0009FE5300100EB441394E5E8009FE567
S315000087402D0100EB481394E5E0009FE52A0100EBBC
S315000087504C1394E5D8009FE5270100EB501394E5F0
S31500008760D0009FE5240100EB541394E5C8009FE573
S31500008770210100EB001494E5C0009FE51E0100EB0B
S315000087800500A0E1E60000EB7040BDE81EFF2FE10A
S31500008790888C000000209020208E00003C8E000077
S315000087A0588E0000748E0000908E0000AC8E000083
S315000087B0C88E0000E48E0000008F00001C8F0000B1
S315000087C0388F0000548F0000708F00008C8F0000DF
S315000087D0A88F0000C48F0000E08F0000FC8F00000F
S315000087E01890000034900000509000006C9000003B
S315000087F088900000A4900000C0900000DC9000006B
S31500008800F890000014910000309100004C91000097
S315000088106891000084910000A0910000BC910000C6
S31500008820D8910000F4910000109200002C920000F4
S315000088304892000064920000809200009C92000022
S31500008840B892000004E02DE5C3C3A0E308E0A0E36E
S3150000885040209FE540309FE540009FE540109FE5A2
S3150000886090E082E594C082E538E09FE51C0083E550
S3150000887034C09FE5A81082E530009FE530109FE5E3
S315000088802CE083E518C083E504E09DE49C0082E5C6
S31500008890141083E51EFF2FE1002090200080802029
S315000088A00007020000100001A689040D080608084A
S315000088B00320002129320000F0412DE905FEFFEBDF
S315000088C0430000EB0220A0E31E1EA0E30A0DA0E376
S315000088D07AFEFFEB23FFFFEBDBFEFFEB08E0A0E3F6
S315000088E0C3C3A0E3C0209FE5C0309FE5C0009FE55D
S315000088F0C0109FE590E082E594C082E5B8E09FE570
S315000089001C0083E5B4C09FE5A81082E5B0009FE592
S31500008910B0109FE52CE083E518C083E59C0082E556
S31500008920141083E50FFFFFEBC7FEFFEBFEFDFFEB29
S3150000893000C0A0E3200090E50020A0E10030A0E305
S3150000894003102CE0013083E20A0D53E3041082E4A5
S31500008950FAFFFF1A01C08CE21E0E5CE30A0C80E2ED
S31500008960F4FFFF1A0070A0E35C409FE55C609FE5A2
S3150000897038509FE5010007E2E1FDFFEB0C0094E8AB
S31500008980081094E5033082E0060003E0012082E04F
S31500008990011083E0043084E5081084E5002084E5B6
S315000089A0017087E2200085E5F1FFFFEA00209020B4
S315000089B0008080200007020000100001A689040D37
S315000089C0080608080320002129320000488C000010
S315000089D00000FFFF70402DE9A4409FE50400A0E1E0
S315000089E094FDFFEB9C509FE5091980E30400A0E18C
S315000089F08EFDFFEB9600A0E390FDFFEB0500A0E1E6
S31500008A000010A0E389FDFFEB0110A0E378009FE5CD
S31500008A1086FDFFEB944084E29600A0E387FDFFEB22
S31500008A200400A0E183FDFFEB0010A0E10400A0E13B
S31500008A30031981E37DFDFFEB9600A0E37FFDFFEBCD
S31500008A400400A0E10010A0E378FDFFEB0110A0E315
S31500008A5038009FE575FDFFEB2810A0E330009FE589
S31500008A6072FDFFEB7010A0E328009FE56FFDFFEBA2
S31500008A700500A0E120109FE56CFDFFEB7040BDE80E
S31500008A801EFF2FE10400202030102020940020201B
S31500008A9024102020281020202C1020200103000064
S31500008AA070402DE90050A0E12C409FE5010000EA4E
S31500008AB00100A0E361FDFFEB0400A0E15DFDFFEB1B
S31500008AC0200010E3F9FFFF1A0510A0E10C009FE556
S31500008AD056FDFFEB7040BDE81EFF2FE11810202069
S31500008AE00010202010402DE92C409FE5010000EAEF
S31500008AF00100A0E351FDFFEB0400A0E14DFDFFEBFB
S31500008B00100010E3F9FFFF1A10009FE549FDFFEB87
S31500008B101040BDE8FF0000E21EFF2FE118102020E4
S31500008B200010202010402DE90040A0E10000D0E513
S31500008B30000050E30300001A0B0000EA0100F4E510
S31500008B40000050E30800000AD4FFFFEB0030D4E534
S31500008B500A0053E3F8FFFF1A0D00A0E3CFFFFFEB77
S31500008B600100F4E5000050E3F6FFFF1A1040BDE8EF
S31500008B701EFF2FE170402DE90040A0E174509FE5F3
S31500008B80200ED5E7C5FFFFEB243CA0E10F3003E242
S31500008B900300D5E7C1FFFFEB243AA0E10F3003E263
S31500008BA00300D5E7BDFFFFEB2438A0E10F3003E259
S31500008BB00300D5E7B9FFFFEB2436A0E10F3003E24F
S31500008BC00300D5E7B5FFFFEB2434A0E10F3003E245
S31500008BD00300D5E7B1FFFFEB2432A0E10F3003E23B
S31500008BE00300D5E70F4004E2ACFFFFEB0400D5E736
S31500008BF07040BDE8A9FFFFEAD892000010402DE9B9
S31500008C000140A0E1C6FFFFEB0400A0E1D8FFFFEBA7
S31500008C1004009FE51040BDE8C1FFFFEAD4920000C2
S31500008C2070402DE90040A0E114509FE50F4004E29A
S31500008C302002D5E799FFFFEB0400D5E77040BDE8B9
S30D00008C4096FFFFEAD89200003E
S31100008C48D2DA120001000000375495003B
S31500008C5466622073747275637420616464723D0085
S31500008C6448414E472121212121212121210A0000A9
S31500008C7463616C6C20696E74725F68616E646C65A6
S31500008C84720A00002D2D2D2D2D2D2D2D2D2D2D2D42
S31500008C942D2D2D2D2D2D2D2D2D2D2D2D2D2D2D2DFA
S31500008CA42D2D2D2D2D2D2D2D2D2D2D2D2D2D2D0A0D
S31500008CB40000000048444D495F4D5F43544C20205A
S31500008CC4202020202020203D0000000048444D495B
S31500008CD45F4D41495F43544C202020202020203DF5
S31500008CE40000000048444D495F4D41495F544852D5
S31500008CF4202020202020203D0000000048444D492B
S31500008D045F4D41495F464D54202020202020203DC0
S31500008D140000000048444D495F4D41495F444154B9
S31500008D24412020202020203D0000000048444D49D9
S31500008D345F4D41495F534D50202020202020203D87
S31500008D440000000048444D495F5649445F43544C73
S31500008D54202020202020203D0000000048444D49CA
S31500008D645F4353435F43544C202020202020203D62
S31500008D740000000048444D495F4353435F31325F6E
S31500008D84313120202020203D0000000048444D4978
S31500008D945F4353435F31345F313320202020203D2D
S31500008DA40000000048444D495F4353435F32325F3D
S31500008DB4323120202020203D0000000048444D4947
S31500008DC45F4353435F32345F323320202020203DFB
S31500008DD40000000048444D495F4353435F33325F0C
S31500008DE4333120202020203D0000000048444D4916
S31500008DF45F4353435F33345F333320202020203DC9
S31500008E040000000048444D495F4652414D455F43CA
S31500008E144F554E542020203D0000000048444D4943
S31500008E245F434F52455F5245562020202020202084
S31500008E342020202020203D0048444D495F53575FA1
S31500008E4452455345545F434F4E54524F4C202020B5
S31500008E5420203D0048444D495F484F54504C5547E7
S31500008E645F494E54202020202020202020203D0031
S31500008E7448444D495F484F54504C554720202020C4
S31500008E84202020202020202020203D0048444D4939
S31500008E945F4649464F5F43544C2020202020202023
S31500008EA42020202020203D0048444D495F4D414963
S31500008EB45F4348414E4E454C5F4D41502020202093
S31500008EC420203D0048444D495F4D41495F434F4E84
S31500008ED446494720202020202020202020203D0015
S31500008EE448444D495F4D41495F464F524D415420D8
S31500008EF4202020202020202020203D0048444D49C9
S31500008F045F415544494F5F5041434B45545F434F7E
S31500008F144E46494720203D0048444D495F52414D45
S31500008F245F5041434B45545F434F4E4649472020CB
S31500008F3420203D0048444D495F52414D5F50414316
S31500008F444B45545F535441545553202020203D0033
S31500008F5448444D495F4352505F43464720202020F2
S31500008F64202020202020202020203D0048444D4958
S31500008F745F4354535F3020202020202020202020CF
S31500008F842020202020203D0048444D495F4354536F
S31500008F945F31202020202020202020202020202077
S31500008FA420203D0048444D495F5343484544554CB1
S31500008FB445525F434F4E54524F4C202020203D00D3
S31500008FC448444D495F484F525A41202020202020D2
S31500008FD4202020202020202020203D0048444D49E8
S31500008FE45F484F525A422020202020202020202053
S31500008FF42020202020203D0048444D495F564552FC
S3150000900454413020202020202020202020202020F1
S3150000901420203D0048444D495F5645525442302075
S3150000902420202020202020202020202020203D0039
S3150000903448444D495F564552544131202020202052
S31500009044202020202020202020203D0048444D4977
S315000090545F564552544231202020202020202020D3
S315000090642020202020203D0048444D495F434543AD
S315000090745F434E54524C5F31202020202020202074
S3150000908420203D0048444D495F4345435F434E54C9
S31500009094524C5F32202020202020202020203D001A
S315000090A448444D495F4345435F434E54524C5F33F6
S315000090B4202020202020202020203D0048444D4907
S315000090C45F4345435F434E54524C5F342020202077
S315000090D42020202020203D0048444D495F4345433D
S315000090E45F434E54524C5F35202020202020202000
S315000090F420203D0048444D495F4345435F54585F33
S31500009104444154415F3120202020202020203D006E
S3150000911448444D495F4345435F54585F4441544175
S315000091245F3220202020202020203D0048444D4945
S315000091345F4345435F54585F444154415F332020A5
S315000091442020202020203D0048444D495F434543CC
S315000091545F54585F444154415F342020202020202E
S3150000916420203D0048444D495F4345435F52585FC4
S31500009174444154415F3120202020202020203D00FE
S3150000918448444D495F4345435F52585F4441544107
S315000091945F3220202020202020203D0048444D49D5
S315000091A45F4345435F52585F444154415F33202037
S315000091B42020202020203D0048444D495F4345435C
S315000091C45F52585F444154415F34202020202020C0
S315000091D420203D0048444D495F54585F5048595F2C
S315000091E452455345545F43544C20202020203D00D3
S315000091F448444D495F54585F5048595F43544C5F47
S31500009204302020202020202020203D0048444D49A5
S315000092145F4345435F4350555F5354415455532070
S315000092242020202020203D0048444D495F434543EB
S315000092345F4350555F534554202020202020202092
S3150000924420203D0048444D495F4345435F43505504
S315000092545F434C45415220202020202020203D0001
S3150000926448444D495F4345435F4350555F4D415321
S315000092744B5F53544154555320203D0048444D49B7
S315000092845F4345435F4350555F4D41534B5F5345E1
S315000092945420202020203D0048444D495F43454347
S315000092A45F4350555F4D41534B5F434C45415220FC
S315000092B420203D0048444D495F52414D5F50414393
S315000092C44B45545F535441525420202020203D00E6
S307000092D40A0088
S315000092D830313233343536373839414243444546DE
S70500000000FA
